:020000040000fa
:080000000002040000000000f2
:020000040000fa
:10040000cf6021000e7f22000e0188000000000056
:100410000c000700c0f32200010020001f000700ad
:10042000000020000000e000020032000000020096
:10043000000000001e2b0200000000000040da0057
:100440000000fe004440a900409b20000000e000a6
:100450000300320000002000a00188004440a800f2
:1004600000000600f03fb1000180b1000600350039
:10047000ee03090000000000403fb1000180b10020
:10048000fbff3d001000b000203fb000020035002f
:1004900000800900000000000000060091018800b3
:1004a000800078000000eb0015003700e28040007b
:1004b00032a0b4009101ba00e280400032a0b40042
:1004c0009102ba00e280400032a0b4000002eb00ca
:1004d000472bde00f507b200602ce10004003a0073
:1004e0000059eb008301e900fdff3e0004003700e6
:1004f0006128e100010032000082eb0004000700e7
:100500001101ba000200e000e8ff3a000000060016
:100510003159ba008301e9000c0032002159ba00b8
:100520008301e900080032000400e00003003a0003
:10053000e280400032a0b400f5ff370011d9ba00c4
:100540008301e900faff3a008100e800e180400001
:1005500032a0b400000006000040da000000fe00f7
:100560000a00fa0080017800e20f500028003e00e7
:1005700050b08000e10f50000800320080232000be
:100580000000e000050032000423200025232000a5
:100590004623200080017800040037000422200058
:1005a00025222000462220008322200014409000b3
:1005b0000004e000040035008009eb0014409000c6
:1005c0000074a00010429800154090000028a3007d
:1005d00003003a00154090000024a00090429800cb
:1005e0008001eb0007003700154090000008a300d1
:1005f000fdff320063c078000000fb00000b7800b4
:100600008301e800828f5100f7ff3a0008003700ad
:1006100030002000b0bf9f00c3bf9f00d1bf9f002c
:10062000e2bf9f006a80570000c0da006fb99700f0
:10063000020078000080fa0000000600140020008c
:1006400043023700889fbe008a9fbe0001057800e4
:100650000100e0000400350008003c000000e0005c
:10066000200032000500370060001000e080180014
:1006700002003b0001f02c001a0037000004be000d
:100680006011b8006b0920000982cf000200390018
:100690000882cf000441b000694252000e003200cf
:1006a00008003b0082817100610164008904d1006f
:1006b0000884d3008b05e8000442e800f9ff3a0003
:1006c000050037000804440089844c008b05e900cc
:1006d0000442e900fbff3a00380207000af0a700d5
:1006e00001f0a0004f05be004f04be000000060050
:1006f00003f0a200889fbe008a9fbe008c1f780076
:10070000540207005b0233006450e1004f003200e6
:100710006420e1005200320003826c0007003b00bd
:100720000905d0000306d000820f54000c065d00be
:1007300002003900020032008901780003067800c7
:100740008582550004003d000003fd008103fd008b
:100750008502ea008b854200840f720002003b0094
:1007600060001000e08018006011b8000005eb0088
:100770007a28e1000a00390006007800c75ddd0034
:10078000f707b200878075002d0037008281710065
:100790000a017800610560008180d1000080d300eb
:1007a0008502e900f9ff3b00060440008784480009
:1007b00002003b0060041400e0841c000988a300d0
:1007c000070032008a81710082817100610164003a
:1007d0008904d1000884d3008b05e8001700370096
:1007e0000978a30013003a000b00e0001300340066
:1007f0008b05e9000804440089844c000a44740015
:100800000978a3000d003a000b00e0000700340057
:100810008b05e9000804440089844c0001003a007b
:100820000b0020000978a300f7ff32000001eb0065
:1008300002003700828171000a017800df010700a1
:100840000cf0a70001f0a000130237006420e100c3
:1008500002003a00838f6c00130233000801be00cf
:100860000200be000c023700889fbe008a9fbe00b7
:100870008c1f7800f7010700fe01330003866c002f
:100880006450e1002e0032006420e10033003200a9
:100890006150e1002f0032006120e10031003200a0
:1008a00085855500eb07b0000900200008042000f2
:1008b000050037000804440089844c000a00310018
:1008c0000603430087834b000001530081815b00d6
:1008d000f8ff33000203be000800a0000804440033
:1008e00089844c00f6ff3900c639dd0083017300ae
:1008f00001003200130020008904d1000884d300d5
:100900000998a300050032000800a7000300a0001a
:100910008904d1000884d3008b05e8008904d10044
:100920000884d3000001eb000281d200a30107007c
:1009300001f0a1000cf0a70001f0a000d6013700e3
:100940006420e100d80132000801be000200be00b0
:10095000f7ff37006120e100d30132006000b800ea
:10096000f3ff37000000200001f82700f0ff3700f8
:10097000f4ff2f0076013700ce01070092bd25005d
:10098000e3ed230000003700889fbe008a9fbe0071
:100990008c1f7800af010700b601330003866c009e
:1009a0006450e100240032006420e100270032009e
:1009b0006150e100220032006120e100210032009c
:1009c0008b854200eb07b1000134b800003ab80053
:1009d0000804420089844a00013ab8000030b80097
:1009e0008880400009014a000400330000004000f4
:1009f00081804800020149008b05e900c909dd003a
:100a0000830170000100320013002000c814de00d2
:100a10004814dd004709de001200b200c808de00fd
:100a2000088470006501070001f0a1000cf0a70028
:100a300001f0a000980137006120e1009a01320026
:100a40000801be000200be00f7ff37006150e10060
:100a5000fcff3a00940137000001be00ec010700e2
:100a60000470a70003f0a1006509b1001600320070
:100a70000d0035006828e10006003500f0ff2f006a
:100a8000f1ff27000300e00013003b0001002800f5
:100a90000000050000004000818048008502e90058
:100aa000fcff3a0008003700f88f420002003c00cb
:100ab0008000eb00000005008100d1000080d30021
:100ac0008502e800fcff3a000300e00002003b0062
:100ad00060001000e0801800000006000001eb003c
:100ae000e0010700040032000200200003f82300a8
:100af00001f0a600fffe0700000006000001eb0069
:100b0000d8010700040032000200200003f823008f
:100b100001f0a700f6fe0700000006000400200018
:100b20000b013700881f7800000478005001be00d8
:100b30004000be00040040008580480006014900d6
:100b400087814900009cbe000294be000400e100c1
:100b50000588e1000690e1000798e10002003100fd
:100b6000680044001008e8004f0478000000060008
:100b7000f4874700889fbe008a9fbe008c9fbe00fe
:100b80008e1f78000205be000004be00d4b79f008f
:100b9000e5b79f00f6b79f0087bf9f000000eb00fe
:100ba000c0b79f00b0b79f00a0b79f0090b79f004d
:100bb00080b79f000d042000bfb097004fb0970092
:100bc000000140000000e0000f003d004f08de0083
:100bd00000007100c0b79f009e00070001003d00ab
:100be00012002000a100070001003d0012002000bb
:100bf000a6000700b1000700b60007000f00400084
:100c0000c8ff0700220037004f08de000006710011
:100c1000ccb79f008f00070001003d0012002000ac
:100c20009200070001003d0012002000970007001d
:100c3000a20007000fb297009fb297002fb3970052
:100c4000bfb39700a90007000000520081805a003e
:100c500002015b0083815b0080b79f0091b79f001a
:100c6000a2b79f00b3b79f000007eb009f000700eb
:100c70000020e10001a8e10002b0e10003b8e100ba
:100c8000010031001e0020000e005600c0b79f007a
:100c90004fb297000400e00007003500100020006c
:100ca000010020006011b800080470008984700001
:100cb0000a0571008b8571008d06e900beff3a00c0
:100cc0000400e00003003d00820007000f00400028
:100cd00094ff07004fa897000000e00004003a00ce
:100ce0000fb497009fb497002fb59700bfb597003a
:100cf000940007004f0778004f06be004f05be0066
:100d00004f04be004f01b10000000600881f7800ac
:100d100018002000881f780095ff07008f87e900e2
:100d20004f04780000000600801feb0090ff0700d2
:100d30008f87e90000000600889fbe008a9fbe00e2
:100d40008c1f78006e00070007003d00730007004d
:100d5000e00f5b00e08f5b0007003d003200070002
:100d60000006eb00040037003400070002003d00dd
:100d70002a0007001c00200072000700e3ff0700a4
:100d80000203be000002be000c00e00001003200c1
:100d9000220007000400be000601be004f067800d6
:100da0004f05be004f04be0000000600889fbe0035
:100db0008a9fbe008c1f78005100070005003d008f
:100dc00056000700e00f5b00e08f5b0006003d006f
:100dd000040037001900070003003d006000b80060
:100de0006011b8001000070056000700ceff070092
:100df0000203be000002be000c00e0000100320051
:100e0000060007000400be000601be004f06780081
:100e10004f05be004f04be00000006006000b80091
:100e20006011b800000037000402500085825800ad
:100e30000603590087835900000006000006eb00f6
:100e4000e00f5200e08f5a00e00f5b00e08f5b0084
:100e5000000006000180400090b79f000001eb00f9
:100e60008fb097000100e000000006000200700053
:100e700090b79f000180400080b79f000001eb0009
:100e8000ffa897000100e0000000060002007000cb
:100e900080b79f00018040006faa9700cf20de003e
:100ea00001007000f0af9f0004024200250007001f
:100eb0004f18de000002720000000600e4af9f0041
:100ec0000804440089844c000a054d008b854d00c0
:100ed000000006003fb29700cfb297005fb39700c3
:100ee000efb3970000fe2f00000006003fb0970010
:100ef000cfb097005fb19700efb1970000000600f8
:100f00000205be000004be00e00f5000e08f580054
:100f1000e00f5900e08f5900000006006000b800a3
:100f20006011b80008045000898458000a0559006f
:100f30008b8559001c002000e00f5200e08f5a0002
:100f4000000006000800be000a01be000000060006
:100f5000889fbe008a9fbe00841f78003d00070066
:100f60004f00780011003300f0ff2f00838f6c00da
:100f700006003b00040565000a00a70008003700d2
:100f800009f0a6001000200008003700820f54006e
:100f9000838f5c00030039001000200001003e0038
:100fa0000000200009f0a7000000ea004f05be0085
:100fb0004f04be000000e000000006008100200099
:100fc000618055000b003d000b00200061fe2f00ea
:100fd0000100e1001d0034008281710061016400a4
:100fe0008904d1000884d3000000e800faff3a0029
:100ff00071002000610064000300700002006000c6
:101000000900320061044400e0844c000988a50016
:10101000050032008b05e8006808e10002003a0094
:101020008904d1000884d300f20f20000258e100a7
:1010300005003d00c75ddd00f907b200898075003d
:1010400008007800000006000bf827008b007800ed
:10105000000005000004be006d0007000003be0094
:101060000405be000200be0069000700844f750041
:10107000000006000200be006450e10005003600da
:101080006420e100020036000968a30001003a0074
:101090000800be000160a0004f0678004f05be00aa
:1010a0004f04be0000000600f0ff2f00f1ff2700f4
:1010b000f9ff3700889fbe008a9fbe008c9fbe004c
:1010c0008f000700850478000005be006420e10061
:1010d00049003e006220e1000300320009003500b3
:1010e0000bf8a300440032000bf8a3000800320004
:1010f00010022000209e8800f0ff2f00f1ff270043
:101100003d00370001f82f00000020003a003700b2
:101110003d00070076fd07000006be000a00be0085
:10112000324f200053f3230011fe07000600340065
:101130000c00be00340007006dfd07000006be0075
:101140000a00be00020037008904e9000c00be005e
:101150002d0007000cfe07002b00070065fd0700af
:101160000001be000c00be00bffd07000005be0070
:101170000001be0004fe07000006be00a2f323002b
:10118000430d2c005bfd0700809fbe000c00be00dd
:10119000d2e32700d3f02b00fbfd07004f01be0078
:1011a000b1fd07000006be000a01be00f6fd070003
:1011b0000a01be004ffd07000006be006148b900ed
:1011c00020fd07000005be0032082800e3952b0033
:1011d000edfd07000c01be0046fd07000006be0045
:1011e0000a00be000200280013f32300e6fd0700fa
:1011f0000c01be003ffd07004f06be004f05be00bc
:101200004f04be000000060003f0230002000500aa
:10121000c70ade00f107b200f50fb2000800320085
:10122000e1cf4200020032000170a000240005005e
:10123000810f700001003200040805004400050021
:10124000810f700002003a00140005008502e900d9
:101250000000400081c04800fcff3b000170a0007e
:1012600024000500889fbe008a9fbe000003be00c8
:10127000e7ff070085057800828152000200200008
:101280006220e10004003a00f307b10004003500d9
:101290007718e100040035000600be001400370096
:1012a0006000b8000f003700f50f2000faff2f0094
:1012b0008502d1000a85d3008301e900fcff3b00d1
:1012c0008184620000046500890f7400f2ff32001f
:1012d0008582ea000a85ea008184620000046500d4
:1012e00036ff070007f0a70001f0a0000081eb0027
:1012f0000200e0004f05be004f04be0000000600e3
:101300000003be00c2ff07006220e10002003200bd
:101310000600be0005000500e507b100f107b200b8
:1013200004f023008480700007f0a70001f0a00003
:10133000240005002800fa00889fbe008a9fbe0096
:101340008c9fbe0003866b000c0207000028a300e0
:1013500064003a000128a30067003a000008a300d7
:1013600062003a000108a30065003a001e009000e8
:10137000be08900081064000ed3fb100f4805700a8
:10138000ee019000111ab8008e099000311bb800d0
:101390009e099000311cb800511db800f48557001b
:1013a00046000700fe0190003a0007008b85e80028
:1013b0003e0007008e09900040000700ee019000fb
:1013c000340007008b85e800380007008e09900084
:1013d000400007009e0990001b18b80089044000d7
:1013e0000a854800fe019000340007008b85e80064
:1013f00038000700ee019000300007008e099000d1
:101400001b18b800890440000a8548000a98a30008
:1014100008003a000402420085824a0006034b009d
:1014200087834b0008044c0089844c000a054d005a
:101430008d06e90084827200850273004c3add005b
:10144000850272000100320015002000443ade00df
:101450001400b2004538de00cb45dd000b00700003
:10146000c540de00cb4ddd008b8070004549de00bd
:10147000cb55dd000b017100c551de000d03780076
:10148000d701070003f0a1000cf0a70003f0a000b3
:10149000ce0137001b18b8008502400006834800c3
:1014a000e0834b0060044c00070037001b18b800b5
:1014b0000603400087834800faff37001b18b80076
:1014c0008703400008844800e0844c0060054d001c
:1014d000000006001b18b80008044000898448007a
:1014e000faff37000108a300b5013a005800be001a
:1014f0005801be00e3ff37000008a300b0013a0026
:1015000009047800f9ff37008103780040ff0700e5
:101510000001be006000b8000478a30013003a0088
:101520006220e10015003e000d0039008301d1006a
:101530000281d3008180d3008301d1000281d300d6
:101540008180d3008301d1000281d3008180d30048
:101550000538b000c42add00f300b20083817200b8
:1015600007f0a70003f0a00000000600f3ff27002b
:10157000f2ff2f006110b900fbff370003ff2700c7
:10158000f7ff37008f1fd100c10107008f87e900e7
:101590000000e00000000600801feb00bc01070017
:1015a0008f87e9000000e000000006001400fa0048
:1015b000889fbe008a9fbe008c9fbe000005be00b3
:1015c0000206be00680047000c90be000a90be00f4
:1015d000d80107006400e1001a00320016003e0046
:1015e0006100e1001a0032006e049000fe049000d9
:1015f0000e0b90009e0b90006011b8009e059000ad
:101600000b38b100d50120008281710061016400b6
:101610008703d1000683d3008984d3000884d300d4
:101620008502e900f8ff3a0064fe07000df0a7000c
:1016300001f0a00065013700f1ff2700f0ff2f0047
:101640006201370001f8270000002000f7ff370093
:101650006000b800f5ff370029ff07000509780092
:1016600000000600809feb00890107008f87e900da
:101670000000e000000006002800fa00889fbe007d
:101680008a9fbe008c9fbe0007067800878669008f
:101690000c003b00030478008704780008f0a100e8
:1016a00009f0a100840f5000858f5800860f590063
:1016b000890f5c00030033000cf0a20001003a0027
:1016c0000cf0a1002d0107006400e1005f00320072
:1016d000780147006408e100610032006c014700b6
:1016e000748557003200be001201be003a04be00ed
:1016f0001a05be001e039000be0a90008503530029
:1017000006003d000004fd008104fd000205fd000f
:101710008305fd008703ea00050378000df8a300a8
:101720000400320060041400e0841c0060051d0009
:10173000e0851d006022b8007d0320000d38e10027
:101740008006eb000b0039004433dd00f300b200eb
:101750008301730039003700848272000d02780023
:10176000e10664008b85d1000a85d3008984d3000b
:101770000884d3008703e900f7ff3b00080040001e
:10178000898048000a0149008b81490004003b0020
:1017900060001000e080180060011900e08119006d
:1017a0000358a300090032008d8272008482720007
:1017b000610260008301d1000281d3008180d300e7
:1017c0000080d3000603e8001b0037000348a30095
:1017d00017003a000600e000170034000603e90095
:1017e0000d00a3000000480081804800020149006c
:1017f000838149000348a3000f003a000600e0007f
:10180000090034000603e900000040008180480020
:10181000020149008381490001003a000003eb0006
:101820000348a300f5ff32006022b8000200370031
:101830008482720061826600e900070003f0a10063
:101840000cf0a70003f0a000e0003700640147009f
:101850006408e10002003a000df8a300d8003a0045
:101860003200be001201be00d80037001400fa009a
:10187000889fbe008a9fbe008c9fbe000004be00f1
:101880000205be00680047000a90be000890be0036
:10189000280107000070a7000bf0a1000bf8a300bf
:1018a00020003a009e0990000e099000fe00900072
:1018b0006e0090009e02900034432000848252000b
:1018c000c20032000a003c00b4fc2f000428e100f2
:1018d000140034008301d1000281d3008180d30041
:1018e0000080d3008502e800faff3a00b700370015
:1018f000b40020000428e10007003c000000400084
:101900008180480002014900838149008502e90085
:10191000faff3a00ad003700030028000200200063
:10192000010037006011b8006000b800a700370060
:101930002800fa00889fbe008a9fbe008c9fbe00d0
:1019400003866b008d0007006400e1004400320054
:101950006408e1004a0032006100e1004600320004
:101960006108e10049003200ec0647006000b80061
:101970003d02be003d03be00f48657006011b80072
:101980003d04be003d05be007d0320000b00370076
:101990000000a0008d06e90013003200040242009e
:1019a00085824a0006034b0087834b0000004000fd
:1019b00081804800020149008381490008025200e9
:1019c00089825a000a035b008b835b00f0ff3b00b7
:1019d0000802420089824a000a034b008b834b00b5
:1019e0008d06e900edff3a00848272008682720063
:1019f000f707b20087827200010032001500200054
:101a00001e0490003e0b900006035400e63fb00019
:101a10000368a300070032000000a7000500a00033
:101a20008301d1000281d3008180d3000080d300e4
:101a30000603e8008301d1000281d3008180d30036
:101a40000080d3000002eb000482d2006400070093
:101a500003f0a1000cf0a70003f0a0005b0037002a
:101a6000640247006408e100550032003400be0003
:101a70003401be00f6ff37006108e100500032007b
:101a80006011b8006000b800f1ff370003ff2700c5
:101a900002002000fbff3700889fbe00830478000f
:101aa0000300e0002c00350003003c0000827000c1
:101ab000040271002600320036432000c5002000d9
:101ac0008383cf000a0039000541b1008283cf0033
:101ad000070039000541b1008183cf0004003900bf
:101ae0000541b1008083cf00010039000541b100fc
:101af00085c353006022b800120032000a003b0088
:101b000084827200610260008301d1000281d300ef
:101b10008180d3000080d3000603e8008743e800fb
:101b2000f7ff3a00070037000000400081804800be
:101b300002014900838149000603e9008743e90067
:101b4000f9ff3a002600070009f0a70003f0a00003
:101b50004f04be000000060060001000e080180086
:101b600060011900e0811900d3ff3b00033e2c0007
:101b7000f7ff370007f0a200bffe370068044700f8
:101b80000294be000094be00fc0447008694be0090
:101b90008494be0009007800660007000800780001
:101ba0006400070099007800814f70000b003b0033
:101bb0000800be00860007004f00b1000300370098
:101bc000f3ff2700f2ff2f006110b9004f06be009f
:101bd0004f05be004f04be000080fa000000060062
:101be0001800200057002000080453000d003d009d
:101bf0000600200097fc2f000740e1001e00340083
:101c000084827200610260008301d1000281d300ee
:101c10008180d3000080d3000804e800f8ff3a0078
:101c2000470020006104600005047400040464009f
:101c30000d00320061004000e08048006001490072
:101c4000e081490003b8a500070032000603e80060
:101c50006538e10004003a008301d1000281d3001d
:101c60008180d3000080d300f87f20000830e1009d
:101c700003003500080378006000b8006011b80068
:101c80004433dd00f300b20083017300000006005e
:101c9000889fbe008a9fbe008c9fbe000404be00c9
:101ca0000605be00809fbe00829fbe005600070052
:101cb000040678000800be000a01be0052000700ba
:101cc000840678004f03be004f02be008d4f7600a1
:101cd0007fb0970013003300f0ff2f008b8f6b0055
:101ce00006003b000d0666000c00a7000a00370046
:101cf00007f0a600100020000a003700880f5200ed
:101d0000898f5a008a0f5b008b8f5b0003003900bc
:101d10001000200001003e000000200007f0a70096
:101d20000000ea004f06be004f05be004f04be0093
:101d300000000600800078005002be005003be0084
:101d40004439de00f700b200f37f20000301610098
:101d5000090032000218e10016003a008501720005
:101d600083017300838173000008200015003a008e
:101d700040002000130037008501720083017300ca
:101d80008381730005003a0004a8be0006a8be00c7
:101d9000100020000b0037000201e900040242009d
:101da00085824a0006034b0087834b000748a30047
:101db000f9ff32000740a00004a8be0006a8be003c
:101dc000200020008000980092009800000006008b
:101dd000e48240001078a300070032006402400053
:101de0001178a3003400be001401be0004003200cc
:101df0000330a700000006003500be001501be003c
:101e00000330a0000000060005ff270005826100e6
:101e1000070032000428e100010032002400050020
:101e20000600070001003a00440005000408050010
:101e300002000700f9ff3a00140005006f826100fc
:101e400081027000850271008502720000000600a8
:101e50000000e00001003d000000ea000000060074
:101e60000c00fa00889fbe0000047800cfb09700f5
:101e7000f0ff2700d0bf9f008004eb0099bf9f00b8
:101e800088bf9f00a8bf9f00200c2000b0bf9f000c
:101e900078815700708057005f0007000fb89700e7
:101ea000094878000fb8970008045000080078002f
:101eb0004f04be000080fa0000000600889fbe00ac
:101ec0008a1f7800804078000004e00021003d0077
:101ed0008040ea00d0c6b30080cf50000900340033
:101ee0008104fb0042062000110009008204d80092
:101ef00000017800010078004311dd006a3c2100f8
:101f00001f0037000100fb00633c2100390037004f
:101f1000a2002000110009000200d8000001780092
:101f2000010078004311dd00030141004300dd00a2
:101f3000030040003002be002003be00422090009b
:101f4000d2209000f221900062219000f9fc07005d
:101f50002e003700d0c6b30080cf500023003400dd
:101f60008104fb0042062000110009008204d80011
:101f700000017800010078004311dd006a4721006c
:101f80000a014100a8002000110009000800d80043
:101f90004300dd000a00400040229000d022900063
:101fa00060239000f02390000288900092889000b7
:101fb000b289900022899000defc0700801f780023
:101fc00001027800110009008804d8000102fd0018
:101fd0004f0078000402fb004322dd000a024200a9
:101fe0005403be004402be00d8ff37000100fb00ce
:101ff00063472100eacf5000c5ff3c004300dd00ed
:10200000030040005001be004000be004f057800b4
:102010004f04be00000006004f03b000889fbe00c2
:102020008a9fbe008c9fbe008e1f7800e0b79f0085
:10203000f1b79f0082bf9f000000eb00b0b79f0088
:10204000670437008001eb0050c2b30080cf50001e
:10205000090032000100fb00efb097006d0407009b
:10206000e10f40005e043200bfb097008100e8003d
:10207000b1b79f005a0437007fb1970092407800b3
:10208000d0c2b30080cf50000c00320007003c00eb
:102090006d40500080cf50000d0032006b4040007a
:1020a00080cf500019003a000e00370000c3b30083
:1020b00080cf500015003a000f0037000330a00019
:1020c0007fb297000402e800f4b79f00eaff3700f0
:1020d0000300a000ffb297008502e800f5b79f005b
:1020e000e5ff37000310a0007fb697000c06e8005c
:1020f000fcb79f00e0ff37000320a0007fb09700ef
:102100000000e800f0b79f00dbff37000318a300d2
:10211000010032000300a1000338a30001003200d7
:102120000320a1000100fb0002fd2f00020040007f
:10213000e90f500010003e008000eb00c1a79f0097
:10214000020278004fa197006a10b900ffb2970011
:102150001501fb000001410004014100c2a79f00de
:102160005500fb00f5b79f0004004000e90f500048
:102170000d003e00f3ff37000006eb00cca79f00e8
:10218000a0c2b30080cf500007003a000fb89700fc
:10219000c000780080bf9f00c1a79f007fb197005b
:1021a0000201e800f2b79f00e0c2b3007fb29700df
:1021b000944f100021003a00830678000de0a00043
:1021c0008400e80064405000914f10000400320089
:1021d000f1b79f008002eb00c5b79f0010003700e9
:1021e0000fbe97004c0078008cbf9f00c0b79f00c7
:1021f000ffb097008180e800f1b79f00130037001f
:102200004fb297006a20b90000004100030040006f
:10221000c0b79f00ffb297008502e800f5b79f00a6
:102220007fb697001c01fb0003fd2f000300410057
:10223000e90f5000f2ff36000400370083067800f3
:102240000dc0a0000000eb00c0b79f007fb1970059
:10225000b2407800f2b79f0081c79f00c0c6b300ac
:1022600080cf50001400320009003c00694050004b
:1022700080cf5000650032006340400080cf5000a6
:10228000130032000104e000db0332007e0037005f
:1022900050c7b30080cf50007f0032006340400041
:1022a00080cf50000d0032006540500080cf5000bc
:1022b00075003a000c003700000028000d48a3000c
:1022c00001003a000001200080867600dfff370021
:1022d0000d0778000ea0a000710037000d077800f0
:1022e0000e70a0006e0037008fb997004300780091
:1022f00083bf9f00000478000000e00001003a0066
:10230000c85e21008004eb00010037008104e80072
:1023100089007800088044001004e000fbff3a00c8
:102320004fb297000400e00003003200890f520012
:1023300001003100840478000007eb00cfa2970071
:10234000898f520001003600098752004368de0081
:10235000e106600019003a000d0678000900370018
:10236000efb0970000022000aa030700e10f400031
:10237000030032003fb097000000e800b0b79f00b4
:102380000c06e8008e0f5600f5ff3a000087eb00c0
:102390000a003700880078003100fb000104780053
:1023a000efb097009b030700e10f400003003200ed
:1023b000bfb097008100e800b1b79f000900e900b5
:1023c00080047800e10f4000f2ff3a000006eb00c5
:1023d0000d00e0000a003a0081033700efb09700db
:1023e000000220008b030700e10f400003003200d1
:1023f0003fb197000201e800b2b79f000c06e80069
:102400008e0f5600f5ff3a00750337008fb997001d
:102410004300780083bf9f00cf80de000101780079
:10242000820178000205be000004be000203be0067
:102430000002be004822de00482edd0004027600c5
:1024400084c79f000d48a3000a0032000404e00086
:1024500008003200e14f42000600320011fc2f005c
:1024600001804700044878001840980029002000a7
:102470000200370090c79f001900200012fc2f00b7
:1024800002844700a6ff370003fc2f0003844700a7
:1024900019002000a2ff37000d0778000e0cb300d2
:1024a0000070200000026700270232000ec8a3005f
:1024b0000200320064002000c4b79f000e48a30051
:1024c000050032000fba97004401be004400be0070
:1024d00084bf9f00040037008fba97004500be00fc
:1024e00085bf9f0008fc0700f0af9f0081b79f00e9
:1024f00092b79f00a3b79f006022b8006033b80076
:102500007fa897008fb097001fb19700afb19700d9
:102510001cfc07000000e0000a003d007fa89700b7
:102520008fb097001fb19700afb1970003f0a200e2
:10253000f0af9f0081b79f0092b79f00a3b79f00a5
:102540003e00b3000000eb00a0a79f006022b8008f
:102550006033b8007fa897008fb097001fb1970035
:10256000afb197000cfc07000000e000340032001f
:102570007fa897008fb097001fb19700afb1970069
:102580000afc070043fc2f000381470032fc0700d0
:102590002fa097000000e9006300b900a20020000e
:1025a000110009000200d8008000fd00a1a79f00d3
:1025b0000100e00002003d000100e900a0a79f002b
:1025c0002fa497000840ea003cfe07007faa97006e
:1025d0008fb297001fb39700afb3970055fb07006a
:1025e000b0af9f00c1af9f00d2af9f00e3af9f008d
:1025f0006022b8000600200007ff2300e1fb07006f
:102600000000e00002003d000800e9000b00370078
:102610006022b80006002000470224003fa897006f
:10262000cfa897005fa99700efa997000dfc0700be
:102630000000e000020035000800e800a0a79f00ad
:102640004fb29700f80f520057003c00d0c6b300bd
:10265000804f5200290036000485fb00420620000e
:10266000110009000285d8000001780001047800fb
:102670004311dd006b3c21000b0141006022b800da
:102680000600200007fe2300028890009288900038
:10269000b28990002289900026fb0700a900200043
:1026a000809fbe00110009000984d8000004780052
:1026b0004f00be004344dd000b044400482290005c
:1026c000d822900068239000f823900019fb07009f
:1026d000801f780001027800110009000985d800e8
:1026e0000102fd004f0078004322dd000b02420092
:1026f0005403be004402be001f0037000480fb00ec
:10270000693c2100ea4f520014003600a20020006c
:10271000110009000280d80000017800010478004f
:102720004311dd00090141006022b80006002000cd
:1027300007fe230042209000d2209000f22190005a
:1027400062219000fbfa07004344dd0009044400c5
:102750003802be002803be00070037004300dd003a
:10276000090040006022b8000600200007fe230098
:102770005001be004000be00eefa07000002be009d
:102780000203be007fa897008fb097001fb197008b
:10279000afb19700b8fb0700f0af9f0081b79f0073
:1027a00092b79f00a3b79f002fa49700e90f540092
:1027b00015003c006022b8006033b8007fa8970085
:1027c0008fb097001fb19700afb1970072fb070061
:1027d0000000e000320032007fa897008fb0970021
:1027e0001fb19700afb1970020fc0700e00f500029
:1027f000e08f5800e00f5900e08f590028003a00a0
:10280000e10f5400260034000400200005002e00d3
:10281000b6e02200170124003fa89700cfa8970038
:102820005fa99700efa9970056fb07000000e000a2
:1028300002003d0073005400010037007200540094
:10284000a0a79f004fc097009cfd0700b0af9f005e
:10285000c1af9f00d2af9f00e3af9f000002be0058
:102860000203be007fa897008fb097001fb19700aa
:10287000afb197002efc0700fcfb07000205be006d
:102880000004be006000b8006011b800d0a79f002f
:10289000e1a79f00f2a79f0083af9f002e003700a3
:1028a0007fa897008fb097001fb19700afb1970036
:1028b000eefb07000205be000004be00e00f500062
:1028c000e08f5800e00f5900e08f590002003500fa
:1028d00071fc0700130037001000200001002000e9
:1028e0006011b80008006000898060000a01610082
:1028f0008b8161008b03d1000a83d3008982d300ce
:102900000882d3000000720081807200020173000f
:102910008381730060fc07000002be000203be005a
:1029200055fb07000002be000203be007fa897000f
:102930008fb097001fb19700afb197008dfc0700d3
:10294000d0a79f00e1a79f00f2a79f0083af9f0041
:102950000000eb00a0a79f0014c0b3006552210047
:102960000b0037000400fb004300dd0005004000c1
:102970005001be004000be000040e10001c8e1007f
:1029800002d0e10003d8e100030039000442e8006e
:10299000f44f5200f3ff3a0084c79f000400fb008d
:1029a000cfb0970000804000afa09700010040002a
:1029b0004fa1970080065100cfb197000300e000bf
:1029c000010032008d06e90063006700010032005b
:1029d0008d06e9000e28a30026003200e100670002
:1029e0000e18a3000c003200d00220000100e0000d
:1029f00001003a000080e900efb0970005020700ef
:102a0000e10f4000180032003fb297000402e800d6
:102a1000b4b79f00140037000100e000120032003c
:102a2000efb0970000022000fa010700e10f40001c
:102a30000d003200bfb297008502e800b5b79f00d5
:102a400009003700efb0970000032000f1010700f4
:102a5000e10f4000030032003fb697000c06e8008b
:102a6000bcb79f008d06e9000d00e000f5ff3c00bb
:102a70003d0037000e38a3000a0032000b0037007b
:102a8000efb0970000022000e2010700e10f4000d4
:102a9000030032003fb097000000e800b0b79f008d
:102aa0008d06e9000d00e000f5ff3c00e100670045
:102ab0000e18a3000c003200d00220000100e0003c
:102ac00001003a000080e900efb09700d101070053
:102ad000e10f400024003200bfb097008100e80001
:102ae000b1b79f00200037000100e0001e00320057
:102af000efb0970000022000c6010700e10f400080
:102b0000190032003fb197000201e800b2b79f0000
:102b1000150037000000fb004300dd00615221007a
:102b2000010040003002be002003be000800be00cd
:102b30000a01be0075f80700a4002000050020006f
:102b40006033b80078f807000003b000efb09700da
:102b5000b0010700e10f400003003200bfb1970051
:102b60008301e800b3b79f000fc297000440e9005b
:102b700080c79f00e14f4000e6ff3a000b0037009e
:102b8000efb0970000032000a2010700e10f400012
:102b900003003200bfb297008502e800b5b79f007e
:102ba0002fa097000000e900a0a79f002fa097008a
:102bb0000000e000f2ff3c004fb6970020c1b300d8
:102bc000f20f560001003c000fe8970080c79f00fd
:102bd0008fc097000100fb004fb19700000051002b
:102be00090af9f000104e00008003200efb09700b2
:102bf000e002200087010700e10f400003003200df
:102c0000bfb197008301e800b3b79f000fc09700e2
:102c1000aafc07000002be000203be005fa09700ee
:102c2000efa097007fa197008fa99700c1f9070037
:102c30000efb07001e0037000000fb004300dd0014
:102c40006c5221000c0040003002be002003be0088
:102c50000800be000a01be002cf80700a4002000f6
:102c6000050020006033b8002ff807000003b00013
:102c7000efb0970067010700e10f4000030032004a
:102c80003fb297000402e800b4b79f008fc29700dc
:102c90000500fb004300dd000c0040003002be00d8
:102ca0002003be000800be000a01be001ef8070097
:102cb0000205be000004be000fc697000c40e900ec
:102cc00080c79f00e14f4000dbff3a000006eb00a9
:102cd00009003700efb09700000320004d01070006
:102ce000e10f4000030032003fb097000000e80011
:102cf000b0b79f000c06e8009fa89700810f560010
:102d0000f4ff3a000e38a300350132000d00e00058
:102d1000330134000006eb00efb097000002200002
:102d20003c010700e10f4000030032003fb1970073
:102d30000201e800b2b79f000c06e8008d0f5600b4
:102d400027013200f4ff37000e00e00005003d00cf
:102d50008fb997004305be004304be0083bf9f00a8
:102d6000110037000e48a300080032008fba970008
:102d70004500be0085bf9f000401780084017800f3
:102d80000205be000004be00070037000fbe97001a
:102d90004c0078008cbf9f000004780009002000e0
:102da0000a0020000b0020004fb097000000e00058
:102db00007003a00e00f5400e08f5c00e00f5d0078
:102dc000e08f5d0002003a0011002000c1b79f00b3
:102dd0000e017800020cb200d2b79f00000820005c
:102de000800f510014003200000c2000800f5100b1
:102df00025003a0014c0b300655221000b003700d3
:102e00000400fb004300dd00050040005001be004f
:102e10004000be000040e10001c8e10002d0e10036
:102e200003d8e100170039000442e800f44f5200d3
:102e3000f3ff3a00130037000001200001002000da
:102e40006011b80014c0b3000040e10001c8e10007
:102e500002d0e10003d8e1000a003900450020005b
:102e60000000d0008180d2000281d2008381d20094
:102e70008502e900faff3a000442e800f04f5200f0
:102e8000f1ff3a0084c79f000fc697000c00fb00bb
:102e9000cfb09700810f500002003d0081c79f0016
:102ea000040037004fb19700800f510001003d0032
:102eb000c0b79f00cfa197000300e00004003200dc
:102ec00063006700020032008301e900c3a79f008e
:102ed0000ee8a3000b0032004fa29700cfb297007c
:102ee000850f520003003c000006eb00cca79f00ba
:102ef000040037004fa09700cfb0970001005000aa
:102f0000c0a79f000fc197000200fb008001eb00eb
:102f1000b3a79f004fa29700800f52000200340019
:102f200000005200b0a79f000e28a300340032001a
:102f3000e10067000e18a3000c003200d002200050
:102f40000100e00001003a000080e900efb09700c6
:102f5000b0000700e10f40000e003200bfb2970042
:102f60008502e800b5b79f000a0037000100e000c5
:102f700008003200efb0970000022000a500070013
:102f8000e10f4000030032003fb697000c06e80056
:102f9000bcb79f003fa097000000e0000f00320088
:102fa0000006eb00efb09700000320009900070037
:102fb000e10f400003003200bfb097008100e8003d
:102fc000b1b79f000c06e8003fa19700820f5600a2
:102fd000f4ff3a008001eb00b3a79f004fb29700c7
:102fe0004320dd00e1512100810640004220dd0048
:102ff000640650008002eb00a5af9f00620037001e
:103000003fa697000c00e000110032006800670046
:103010000f003a0000067800efb097000002200091
:103020007c000700e10f4000030032003fb0970032
:103030000000e800b0b79f000c06e800bfa09700b2
:10304000810f5600f4ff3a000001eb00b2a79f0089
:10305000e10067000e18a3000c003200d00220002f
:103060000100e00001003a000080e900efb09700a5
:1030700068000700e10f4000d8ff3200bfb19700a1
:103080008301e800b3b79f00d4ff37000100e000e0
:10309000d2ff3200efb09700000220005d00070071
:1030a000e10f4000cdff32003fb297000402e8007c
:1030b000b4b79f00c9ff370000082000dfb29700b7
:1030c000808f520010003200000c2000808f5200d0
:1030d0001f003a003d02be002d03be000800be00e6
:1030e0000a01be0009f70700a40020000500200027
:1030f0006033b8000cf7070004c3b300044240007b
:1031000084c79f0012003700140020000500200033
:103110006033b8000c0078000000e90005003300bf
:103120000402d0008582d2000683d2008783d200b9
:10313000f9ff37000800be000a01be00f3f60700e1
:103140006f006000345f21006442780084c79f00f4
:103150008fc097000100fb00efb097002d00070023
:10316000e10f4000030032003fb197000201e80088
:10317000b2b79f00afa997008301e800a3af9f00fb
:10318000e8865600640656002faa9700cfb2970033
:10319000850f5200c8ff3a000e38a300100032001d
:1031a0003fa697000c00e0000d0034000006eb0085
:1031b000efb097000002200016000700e10f40006a
:1031c000030032003fb097000000e800b0b79f0056
:1031d0000c06e800bfa09700810f5600f4ff3a00ec
:1031e0007fb19700b2407800f2b79f0081c79f007f
:1031f0000104e00093fb3a003fb097004f077800ce
:103200004f06be004f05be004f04be004f03b10085
:1032100000000600889fbe000001780001047800cd
:10322000b10090000118a3003d0032000198a300f6
:1032300003003a00180090000000e00038003a0057
:103240000190a0003104980082047800f90fb200c8
:10325000180090000000e00002003a0028009000f2
:10326000000c7800ea8f540006003a003800900005
:103270000078a30003003a0088007800d000200006
:10328000e4ff07009800900058009000808f5000e5
:103290000b0032000100e8001004980018007800cc
:1032a00009587800000c780011c0b300806021003c
:1032b00001487800ea8f54000600320019003700f8
:1032c0008800780009407800190007008004780021
:1032d00014003700380090000088a300110032006d
:1032e00018019000a8009000480090009cf407008e
:1032f00098009000810f50000400320038009000c8
:103300000003b300300498008084eb000000eb0061
:103310001004980028009000000c7800010037008d
:103320008084eb00090078004f04be000000060016
:103330000200fa00889fbe00a0ff9f0001047800f1
:10334000b1009000810478000904b200020032004c
:103350000000fb00360037000118a30005003a000a
:103360000103b30031049800190498000080eb00b9
:103370002f003700580090000000e00006003a00df
:103380004800900012002000e680570074f4070007
:103390001904980024003700280090000000e00085
:1033a00008003a004060210020049800000c7800da
:1033b0002000200050049800100498000130a00064
:1033c0003104980018019000a80090004800900077
:1033d00063f4070028009000000c78000080eb00e8
:1033e0001004980018007800aff897000158780092
:1033f000000c78002ff89700ea4f50000a003a00be
:10340000380090000088a3000700320018019000e7
:10341000a80090004800900051f40700190498009b
:10342000a8009000010c7800aff897000100fb00a5
:0c3430004f04be000080fa0000000600ff
:020000040000fa
:04aff800bd7b00001d
:020000040000fa
:04affc00203e0000f3
:020000040000fa
:10000800ac020000ac020000ac020000ac02000030
:10001800ac020000ac020000ac020000ac02000020
:10002800ac020000ac020000ac020000ac02000010
:10003800ac020000ac020000ac020000702a000014
:10004800ac020000ac020000ac020000ac020000f0
:10005800ac020000862a0000ac020000ac020000de
:10006800ac020000ac020000ac020000ac020000d0
:10007800ac020000ac020000ac020000ac020000c0
:10008800ac020000ac020000ac020000ac020000b0
:10009800ac020000ac020000ac020000ac020000a0
:1000a800ac020000ac020000ac020000ac02000090
:1000b800ac020000ac020000ac020000ac02000080
:1000c800ac020000ac020000ac020000ac02000070
:1000d800ac020000ac020000ac020000ac02000060
:1000e800ac020000ac020000ac020000ac02000050
:1000f800ac020000ac020000ac020000ac02000040
:10010800ac020000ac020000ac020000ac0200002f
:10011800ac020000ac020000ac020000ac0200001f
:10012800ac020000ac020000ac020000ac0200000f
:10013800ac020000ac020000ac020000ac020000ff
:10014800ac020000ac020000ac020000ac020000ef
:10015800ac020000ac020000ac020000ac020000df
:10016800ac020000ac020000ac020000ac020000cf
:10017800ac020000ac020000ac020000ac020000bf
:10018800ac020000ac020000ac020000ac020000af
:10019800ac020000ac020000ac020000ac0200009f
:1001a800ac020000ac020000ac020000ac0200008f
:1001b800ac020000ac020000ac020000ac0200007f
:1001c800ac020000ac020000ac020000ac0200006f
:1001d800ac020000ac020000ac020000ac0200005f
:1001e800ac020000ac020000ac020000ac0200004f
:0801f800ac020000ac020000a3
:020000040000fa
:10020800ac020000ac020000ac020000ac0200002e
:10021800ac020000ac020000ac020000ac0200001e
:10022800ac020000ac020000ac020000ac0200000e
:10023800ac020000ac020000ac020000702a000012
:10024800ac020000ac020000ac020000ac020000ee
:10025800ac020000862a0000ac020000ac020000dc
:10026800ac020000ac020000ac020000ac020000ce
:10027800ac020000ac020000ac020000ac020000be
:10028800ac020000ac020000ac020000ac020000ae
:10029800ac020000ac020000ac020000ac0200009e
:1002a800ac020000ac020000ac020000ac0200008e
:1002b800ac020000ac020000ac020000ac0200007e
:1002c800ac020000ac020000ac020000ac0200006e
:1002d800ac020000ac020000ac020000ac0200005e
:1002e800ac020000ac020000ac020000ac0200004e
:1002f800ac020000ac020000ac020000ac0200003e
:10030800ac020000ac020000ac020000ac0200002d
:10031800ac020000ac020000ac020000ac0200001d
:10032800ac020000ac020000ac020000ac0200000d
:10033800ac020000ac020000ac020000ac020000fd
:10034800ac020000ac020000ac020000ac020000ed
:10035800ac020000ac020000ac020000ac020000dd
:10036800ac020000ac020000ac020000ac020000cd
:10037800ac020000ac020000ac020000ac020000bd
:10038800ac020000ac020000ac020000ac020000ad
:10039800ac020000ac020000ac020000ac0200009d
:1003a800ac020000ac020000ac020000ac0200008d
:1003b800ac020000ac020000ac020000ac0200007d
:1003c800ac020000ac020000ac020000ac0200006d
:1003d800ac020000ac020000ac020000ac0200005d
:1003e800ac020000ac020000ac020000ac0200004d
:0803f800ac020000ac020000a1
:020000040000fa
:10343c00feff0000044000000820000010100000f7
:10344c002008000040040000800200000001000081
:10345c00feff0000fc7f0000f83f0000f01f0000a2
:10346c00e00f0000c0070000800300000001000016
:10347c000001000080020000400400002008000051
:10348c00101000000820000004400000feff0000a7
:10349c000001000080030000c0070000e00f0000e6
:1034ac00f01f0000f83f0000fc7f0000feff000052
:1034bc00ffff0000ffff0000ffff0000ffff000008
:1034cc00ffff0000ffff0000ffff0000ffff0000f8
:1034dc0000000000000000000000000000000000e0
:1034ec0000000000000000000000000000000000d0
:1034fc00000000000000000000000000fc3700008d
:10350c00fc31000000000000000000000000000082
:10351c00000000000000000038000000080000005f
:10352c00080000003800000000000000000000004f
:10353c0040040000403c0000f8070000400400007c
:10354c0040340000f00f000048040000400400006c
:10355c0000000000701c0000d8300000fc7f000050
:10356c0008210000381f0000200e000000000000a1
:10357c007000000088300000f80c000040030000d0
:10358c00e01e000018210000003f000000000000b9
:10359c00000c0000001f0000f83100008823000020
:1035ac007834000030180000001e000000100000ed
:1035bc0000000000000000000000000038000000c7
:1035cc0000000000000000000000000000000000ef
:1035dc0000000000000000000000000000000000df
:1035ec00f00f000018300000044000000000000044
:1035fc00004000000460000018300000e00f0000e4
:10360c0000000000000000000000000000000000ae
:10361c000000000020010000a0000000f8070000de
:10362c00f8070000a00000002001000000000000ce
:10363c00000100000001000000010000e00f00008c
:10364c00000100000001000000010000000100006a
:10365c000000000000b0000000700000000000003e
:10366c00000000000000000000000000000000004e
:10367c00000100000001000000010000000100003a
:10368c00000100000001000000010000000000002b
:10369c0000000000003000000030000000000000be
:1036ac00000000000000000000000000000000000e
:1036bc000020000000100000000c000000030000bf
:1036cc00c0000000300000000800000000000000f6
:1036dc0000000000f00f000018100000082000008f
:1036ec000830000018180000e00f00000000000077
:1036fc00000000006000000020000000f03f00000f
:10370c00f83f000000000000000000000000000076
:10371c0000000000303000001838000008340000b1
:10372c0008330000d83100007030000000000000a9
:10373c0000000000301800001810000008200000e5
:10374c0088210000d8130000700e0000000000005b
:10375c000004000000070000800500006004000069
:10376c0030040000f83f00000004000000040000da
:10377c0000080000f019000098300000c82000007c
:10378c008830000088190000080f000000000000bd
:10379c0000000000801f0000c0310000f02000007d
:1037ac009820000080300000001f00000006000080
:1037bc00000000000800000008300000083e000077
:1037cc0088030000e8000000380000000000000042
:1037dc0000040000f01f0000883100008821000068
:1037ec0088210000d8310000701e0000000000008d
:1037fc00e0000000f001000008230000083a00007f
:10380c00080f000098030000f0000000000000000a
:10381c0000000000000000000000000080310000eb
:10382c00001100000000000000000000000000007b
:10383c0000000000000000000000000080f100000b
:10384c00003100000000000000000000000000003b
:10385c000000000080010000800200004004000015
:10386c0020080000101000000820000000000000dc
:10387c00400400004004000040040000400400002c
:10388c004004000040040000400400000000000060
:10389c00000000000830000010100000200800009c
:1038ac004004000080020000000100000000000045
:1038bc00000000003000000018000000083200007a
:1038cc0088110000f80000007000000000000000eb
:1038dc00e00f00001010000088270000682800008e
:1038ec0028270000e8280000f00700000000000076
:1038fc0000200000003e0000c0070000780200001d
:10390c0078020000c0070000003c0000002000000e
:10391c0000000000f83f00008831000088310000f2
:10392c008831000098110000701e0000000000009b
:10393c0000000000f00f0000181800000830000014
:10394c000820000018300000701e0000000000006d
:10395c0000000000f83f00000830000008300000b4
:10396c001810000030180000e00f000000000000ec
:10397c0000000000f83f0000883100008831000092
:10398c008831000088310000883100000000000000
:10399c0000000000f83f00000801000008010000d2
:1039ac0008010000080100000800000000000000f1
:1039bc0000000000f00f0000181800000830000094
:1039cc000823000018130000703f000000000000e6
:1039dc0000000000f83f00008001000080010000a2
:1039ec008001000080010000f83f00000000000092
:1039fc00000000000000000000000000f83f000084
:103a0c00f83f000000000000000000000000000073
:103a1c0000000000001c000000300000003000001e
:103a2c000030000000180000f80f0000000000003b
:103a3c0000000000f83f000080010000c001000001
:103a4c0060070000181c0000083000000020000077
:103a5c0000000000f83f00000030000000300000c3
:103a6c0000300000003000000030000000000000ba
:103a7c0000000000f83f0000f8010000003f0000cb
:103a8c00801f0000f8000000f83f0000000000005c
:103a9c0000000000f83f000070000000c0010000b2
:103aac0000070000003c0000f83f00000000000090
:103abc0080030000f01f0000181000000820000018
:103acc000820000018180000f00f00000000000093
:103adc0000000000f83f000008030000080300008d
:103aec000801000018010000f001000000000000b7
:103afc0080030000f01f00001810000008200000d8
:103b0c00082c000018380000f02f00000000000006
:103b1c0000000000f83f0000080100000801000050
:103b2c0008070000981d0000f030000000000000a5
:103b3c0000000000701c0000d8300000882100003c
:103b4c000821000038330000301e00000000000087
:103b5c00000000000800000008000000f83f000012
:103b6c00f83f000008000000080000000000000002
:103b7c0000000000f81f00000030000000200000d2
:103b8c000020000000300000f81f000000000000c2
:103b9c0008000000f8000000c0070000003c000016
:103bac00003e0000e0030000780000000000000070
:103bbc0038000000f03f0000003f0000f80000005b
:103bcc00f8030000003c0000f80f000008000000a3
:103bdc000020000018380000700e0000c003000028
:103bec00c0070000381c0000083000000000000076
:103bfc000800000038000000e0000000803f0000da
:103c0c00c03f000070000000180000000000000021
:103c1c000000000008380000083e000008330000d7
:103c2c00c8300000783000001830000000000000a0
:103c3c00000000000000000000000000fe7f0000fb
:103c4c0002400000024000000240000000000000a2
:103c5c00000000000800000070000000800100005f
:103c6c00000e00000030000000c00000000000004a
:103c7c000000000002400000024000000240000072
:103c8c00fe7f0000000000000000000000000000ab
:103c9c00000000000800000004000000020000000a
:103cac0006000000040000000800000000000000f6
:103cbc0000800000008000000080000000800000f8
:103ccc0000800000008000000080000000800000e8
:103cdc0000000000000000000200000006000000d0
:103cec000c000000000000000000000000000000bc
:103cfc0000000000001d0000802400008024000053
:103d0c0080320000801f0000003f00000000000017
:103d1c0000000000f83f0000801000008020000030
:103d2c008020000080190000001f0000000000002f
:103d3c0000000000001f0000803000008020000008
:103d4c00802000008011000000190000000000001d
:103d5c0000000000801f0000803000008020000068
:103d6c008020000080190000f83f000000000000d7
:103d7c0000000000001f00008012000080220000e4
:103d8c008022000080330000001b000000000000b7
:103d9c00000000008000000080000000f83f0000e0
:103dac00880000008800000088000000000000006f
:103dbc000000000000fb00008094000080940000d4
:103dcc008094000080b700008060000000000000bc
:103ddc0000000000f83f000000010000800000001f
:103dec008000000080000000803f00000000000008
:103dfc00000000000000000000000000983f0000e0
:103e0c00883f0000000000000000000000000000df
:103e1c000000000000c000000080000000800000d6
:103e2c0088ff0000987f00000000000000000000e8
:103e3c0000000000f83f0000000600000003000036
:103e4c008007000080180000003000000000000017
:103e5c00000000000000000000000000f83f00001f
:103e6c00f83f00000000000000000000000000000f
:103e7c00803f0000803f000080000000803f000079
:103e8c00003f000080000000803f0000803f0000e9
:103e9c0000000000803f00000001000080000000d6
:103eac008000000080000000803f00000000000047
:103ebc0000000000001f00008010000080200000a7
:103ecc008020000080110000001f00000000000096
:103edc000000000080ff0000801000008020000027
:103eec008020000080190000001f0000000000006e
:103efc0000000000801f00008030000080200000c7
:103f0c00802000008019000080ff000000000000ed
:103f1c000000000000000000803f000000010000d5
:103f2c008000000080000000000000000000000085
:103f3c0000000000001b0000803300008024000003
:103f4c0080240000803500000019000000000000f3
:103f5c00800000008000000080000000f01f0000c6
:103f6c0080200000802000000030000000000000d5
:103f7c0000000000801f0000003000000020000046
:103f8c000030000000180000803f0000000000001e
:103f9c000000000080010000000f0000003800004d
:103fac000038000000070000800100000000000045
:103fbc0080010000801f0000003c00008003000016
:103fcc008007000000380000800f00008000000017
:103fdc00000000008030000080190000000e00007e
:103fec00000f0000801900000020000000000000fd
:103ffc000000000080810000008f000000f800002d
:10400c0000380000000700008001000000000000e4
:10401c000000000080300000803800008024000088
:10402c0080230000802100008020000000000000a0
:10403c000000000000000000000000000001000073
:10404c00fc3e0000024000000240000000000000a6
:10405c00000000000000000000000000ffff000056
:10406c00ffff000000000000000000000000000046
:10407c000240000002400000fc3e00000001000075
:10408c000000000000000000000000000000000024
:10409c000000000006000000030000000200000009
:1040ac0004000000040000000600000000000000f6
:1040bc00f01f000010100000f01f000000000000b6
:1040cc0000000000000000000000000000000000e4
:1040dc0020200000202000002020000020200000d4
:1040ec0020200000202000002020000020200000c4
:1040fc00000000004672000065710000206900009d
:10410c00732000006f750000742000006f660000c3
:10411c0020720000616e0000676500002e00000038
:10412c005ccf0000024300000a9700000a43000025
:10413c007bd40000124300005c8f00001b43000086
:10414c005ccf000024430000d7a300002e430000e6
:10415c000000000039430000000000004443000050
:10416c0066a600004f430000000000005c43000006
:10417c007b14000069430000a4f0000076430000ab
:10418c00a4d00000824300000a9700008a4300007c
:10419c007bd4000092430000a49000009b430000dd
:1041ac00a4d00000a4430000719d0000ae430000a9
:1041bc00b8fe0000b843000000000000c44300003b
:1041cc0066a60000cf43000000000000dc430000a6
:1041dc007b140000e9430000a4f00000f64300004b
:1041ec0000d0000002440000ae9700000a4400001a
:1041fc001fd5000012440000009000001b4400007a
:10420c00a4d0000024440000719d00002e44000046
:10421c005cff0000384400005cff000043440000d9
:10422c000aa700004f440000000000005c4400009e
:10423c001f1500006944000048f10000764400009e
:10424c004320000000430000230000004420000035
:10425c000044000023000000452000000046000040
:10426c002000000046230000004700002000000052
:10427c004723000000410000200000004123000003
:10428c000042000020000000202000000000000080
:10429c0000000000a5430000cd2c0000a44300004a
:1042ac0066260000df4300009a990000d543000009
:1042bc0033b300005b4400009a990000594300009e
:1042cc0000000000000000000000000000000000e2
:1042dc0000000000000000000000000000000000d2
:1042ec0000000000000000000000000000000000c2
:1042fc0000000000000000000000000000000000b2
:10430c000000000000000000467200006571000013
:10431c003a200000252e000032660000000000004c
:10432c000000000000000000000000000000000081
:10433c000000000000000000000000000000000071
:10434c0080400000202000002020000020400000c1
:10435c00c0000000000000000000000080400000d1
:10436c00202000002020000020400000c0000000a1
:10437c000000000000000000000000000000000031
:10438c000000000000800000402000002020000001
:10439c002020000040c000000000000000000000d1
:1043ac0000800000402000002020000020200000a1
:1043bc0040c00000000000000000000000000000f1
:1043cc0000000000804000002020000020200000a1
:1043dc0020400000c00000000000000000000000b1
:1043ec008040000020200000202000002040000021
:1043fc00c0000000000000000000000000000000f1
:10440c0000000000000000000000000000000000a0
:10441c000000000000000000000000000000000090
:10442c000000000000000000000000000000000080
:10443c00000000000000000000000000000f000061
:10444c000c0c00000000000080c000006030000078
:10445c001f0f000000000000000f00000c0c0000fb
:10446c000000000080c00000603000001f0f000042
:10447c000000000000000000000000000000000030
:10448c00000000000f0c00000c0000000080000079
:10449c00c0600000301f00000f0000000000000092
:1044ac000f0c00000c00000000800000c060000039
:1044bc00301f00000f000000000000000000000092
:1044cc00000f00000c0c00000000000080c0000079
:1044dc00603000001f0f000000000000000f000003
:1044ec000c0c00000000000080c0000060300000d8
:1044fc001f0f000000000000000000000000000082
:10450c00000000000000000000000000000000009f
:10451c00000000000000000000000000000000008f
:10452c00000000000000000000000000000000007f
:10453c00000000000000000000000000000000006f
:10454c000000000000e00000e7e0000000000000b8
:10455c00000000000000000000000000000000004f
:10456c0000e00000e7e00000000000000000000098
:10457c00000000000000000000000000000000002f
:10458c00000000000000000000000000e0e7000058
:10459c00e00000000000000000000000000000002f
:1045ac000000000000000000e0e70000e000000058
:1045bc0000000000000000000000000000000000ef
:1045cc00000000000000000000e00000e7e0000038
:1045dc0000000000000000000000000000000000cf
:1045ec000000000000e00000e7e000000000000018
:1045fc0000000000000000000000000000000000af
:10460c00000000000000000000000000000000009e
:10461c00000000000000000000000000000000008e
:10462c00000000000000000000000000000000007e
:10463c00000000000000000000000000000000006e
:10464c00000000000000000000000000000000005e
:10465c00000000000000000000000000000000004e
:10466c00000000000000000000000000000000003e
:10467c00000000000000000000000000000000002e
:10468c00000000000000000000000000000000001e
:10469c00000000000000000000000000000000000e
:1046ac0000000000000000000000000000000000fe
:1046bc0000000000000000000000000000000000ee
:1046cc0000000000000000000000000000000000de
:1046dc0000000000000000000000000000000000ce
:1046ec0000000000000000000000000000000000be
:1046fc0000000000000000000000000000000000ae
:10470c00000000000000000000000000000000009d
:10471c000000000000000000000000000057000036
:10472c00656c0000636f00006d65000021000000e7
:10473c00416e0000616c0000797a0000696e000027
:10474c006721000000540000727900002061000015
:10475c0067610000696e00002e0000002020000040
:10476c00202000002020000020200000202000003d
:10477c002020000020200000200000004f750000c9
:10478c00742000006f66000020720000616e000053
:08479c00676500002100000028
:020000040000fa
:1047a4000000fa00c002a800e0ff2f006019880092
:1047b4001132200091407800c0cfb30000c06000e7
:1047c40021e3b700013220009140780000ceb3000d
:1047d40000c0700020e3b7002043a90023c3bf003a
:1047e4007f40600023e3b7002343a9002132200067
:1047f4009140780030ccb30000c0600022e3b700e1
:104804002223a9002203a9005132200091407800fc
:1048140000ceb30000c060000034a00025e3b70060
:1048240010c0b30024e3b70028e3a90081322000bc
:104834009140780000cfb30000c0600028e3b700c7
:1048440021e3a8000080fa00000006000400fa003a
:1048540020479800314798000040eb00004f780053
:10486400060037003e4090009e4040000041eb00af
:104874002e409000530b07001e4fe80050c0b300b9
:104884009e4f1000f7ff36003e4090006640400007
:104894008040780002c2b3002e409000ec0a07006a
:1048a4000040eb00004f7800080037003e409000c5
:1048b4001e404000674040008040780022c0b300a2
:1048c4002e4090003f0b07001e4fe80050c0b3007d
:1048d4009e4f1000f5ff36000080fa00000006002d
:1048e4000600fa00204798003147980022079800f4
:1048f4002e009000e40f50000a003c002e009000af
:10490400e50f4000070034003e4090006640400040
:104914008040780042c0b3002e409000290b07006d
:10492400530037002e009000e40f500011003400b3
:104934002e009000fe0f50000e003c002e00900050
:104944000080fb0052002000110009000280d80002
:10495400804078003e40900000c040006640400027
:104964008040780032c0b3002e409000150b070041
:104974003f0037002e009000fe0f5000110034005d
:10498400ae00900010032000808f50000d003c000a
:1049940070c0b300004f7800060037003e4090001e
:1049a4009e40400032c0b3002e409000050b07002b
:1049b4001e4fe800c0c0b3009e4f1000f7ff360042
:1049c4002b0037002e009000e50f400010003c0043
:1049d4002e009000fe0f40000d0035002e009000c8
:1049e4007e4040000080fb005200200011000900be
:1049f4000280d800804078003e40900080c0400093
:104a040012c0b3002e409000ee0a070018003700d1
:104a14002e009000fe0f400011003d00ae009000fb
:104a2400e0fc2f00808f50000d0034000040eb00ac
:104a3400004f7800060037003e4090009e40400042
:104a440012c0b3002e409000de0a07001e4fe8009b
:104a540050c0b3009e4f1000f7ff3600040037002b
:104a640002082a0011c0b30010c0b3002b0a0700cb
:104a74000080fa00000006000e00fa00008fbe005d
:104a840022079800330798004407980055079800b8
:104a94006011b8002e009000be009000e6ee070002
:104aa4000000e000010032000f0037001e00be00cd
:104ab400e6f40700cf80de00e1ee07000001eb0022
:104ac40062079800f226210033a82300daee0700db
:104ad4000000e000010035002b003700100020002a
:104ae40060079800280037006011b8001e00be005f
:104af400d1ee07000000e000010032001000370092
:104b04002e009000be009000d0f40700cf80de009d
:104b1400cbee07000001eb0062079800f2262100ab
:104b240033a82300c4ee07000000e00001003500b4
:104b340015003700100020006007980012003700ad
:104b44002e019000be0190001e00be00e7ee07009b
:104b54002e019000be01900042ef070001f0a10079
:104b64000001eb00620798004e019000de01900006
:104b7400b1ee07000000e00001003400020037003d
:104b840010002000600798006e0090000080fa007a
:104b9400000006001a00fa00100f9800210f980078
:104ba4000000eb00000f98001e0890001001be00ea
:104bb40062079800730798000000200001f82300a2
:104bc40040079800510798000000200001f82300d6
:104bd40020079800310798001e089000301f7800c5
:104be400201778002e089000e10f500005003a00cd
:104bf4001e0890001001be00320f9800430f980069
:104c04003c00370010002000000f980031003700ee
:104c14000e0890004200dd00800078001e0890001d
:104c2400008040001001be00a4702d0035ca23008e
:104c34001e00be0090ff07000004e00008003200e0
:104c44000200200003f823002e009000be00900014
:104c5400a7ee070020079800310798000b003700e3
:104c64000e0890004200dd00800078001e089000cd
:104c740000804000301f78002017780000002000da
:104c840001f8230020079800310798004e01900096
:104c9400de0190002e009000be00900033ef07006c
:104ca4000000e00001003c00070037001e00be00c9
:104cb40060079800710798002e019000be019000d3
:104cc40042079800530798000e0890000000e8007f
:104cd400000f98008e0890002e089000808f5000de
:104ce400cbff39006e009000fe009000300f98005a
:104cf400410f98003e089000ce0890000080fa0012
:104d0400000006000c00fa004007980051079800c4
:104d14001000200030079800320037003e00900059
:104d24004200dd00800078004e00900000804000ca
:104d3400301f7800201778003e009000200798006c
:104d4400100037002e0090004200dd008000780043
:104d54004e009000008140002e0090004200dd00d3
:104d6400800078004e0090000080400064005000f5
:104d74001000be000089be002e0090000000e90073
:104d8400200798002e0090000000e0000b00320085
:104d94002e0090004200dd00800078004e0090005c
:104da40000804000640050001000be001e01be00e0
:104db400eeee07000000e000e2ff3c002e00900051
:104dc4004200dd00800078004e009000008040002a
:104dd4003e1878002e1078003e0090000000e80095
:104de40030079800be0090005e009000808f500055
:104df400caff39000080fa00000006000800fa002b
:104e0400008fbe0022079800330798002e019000ff
:104e1400be0190001e00be0035ee07000200200017
:104e2400030024008fee07000080fa000000060053
:104e34000400fa00008fbe001e00be00cdee070085
:104e4400b2092200a3e9230086ee07000080fa00dd
:104e5400000006000a00fa002007980031079800b5
:104e640002002000031224002e009000be009000d7
:104e7400c4ee0700f7ee0700a200200011000900ad
:104e84000200d8008000fd00cf80de00eced0700ba
:104e9400008fbe0002002000030824001e00be0094
:104ea400b2ee07000000e00001003c0006003700fd
:104eb4002e009000be00900007ef0700e5ee07000b
:104ec40040079800050037002e009000be009000b7
:104ed40009ef0700dfee0700400798004e0090003e
:104ee4000080fa00000006000a00fa00004f780073
:104ef4001e80fb006101b900320798004307980047
:104f0400c0002000010020003e019000ce0190006e
:104f1400800f5100818f590037003e003e00900001
:104f2400ce009000006001000c0037000e00370036
:104f34001000370012003700140037001600370045
:104f4400180037001a0037001c0037001e00370015
:104f540020003700220037002400370061122a00a5
:104f6400110798002500370092122a0012079800b2
:104f740022003700c3122a00130798001f003700cd
:104f8400f0122a00100798001c00370021132a0091
:104f9400110798001900370052132a0012079800cd
:104fa4001600370083132a001307980013003700f4
:104fb400b0132a001007980010003700e1132a00ec
:104fc400110798000d00370012142a0012079800e8
:104fd4000a00370043142a0013079800070037001b
:104fe40070142a001007980004003700a1142a0046
:104ff4001107980001003700020037001e019000dd
:10500400220798002e0090000080fa00000006009d
:105014000e00fa00600798004207980053079800b2
:105024000000eb00000f7800200037001e0078001d
:10503400c200dd0060092a00008040001001be00ab
:1050440054ad2700f5cb23004e009000de00900005
:1050540089fe07000004e000130032009e0078007f
:105064000e80e800010878001e007800c200dd0010
:1050740060092a00008040001000be000e81e80094
:1050840010019800210198000e80e8001001be0074
:10509400ee0090008288be00a00190006e01900096
:1050a400230198005f0037001e0fe800b0002000c5
:1050b4009e0f1000ddff36000000eb00000f7800ab
:1050c400200037001e007800c200dd00600c2a00ba
:1050d400008040001001be0054ad2700f5cb230032
:1050e4004e009000de00900063fe07000004e00024
:1050f400130032009e0078000e80e800010878005a
:105104001e007800c200dd00600c2a000080400010
:105114001000be000e81e8001001980021019800e3
:105124000e80e8001001be00ee0090008288be00f0
:10513400a00190006e01900023019800390037000f
:105144001e0fe800b00020009e0f1000ddff3600a7
:105154000000eb00000f7800200037001e007800ec
:10516400c200dd00600f2a00008040001001be0074
:1051740054ad2700f5cb23004e009000de009000d4
:105184003dfe07000004e000130032009e0078009a
:105194000e80e800010878001e007800c200dd00df
:1051a400600f2a00008040001000be000e81e8005d
:1051b40010019800210198000e80e8001001be0043
:1051c400ee0090008288be00a00190006e01900065
:1051d40023019800130037001e0fe800b0002000e0
:1051e4009e0f1000ddff36008e80e800c000200016
:1051f400800878000e81e80000002400c1612400ca
:1052040010019800210198000e80e8001001be00f2
:10521400ee0090008288be00a00190006e01900014
:10522400230198006e0090000080fa000000060040
:105234000800fa00008fbe00220798003307980088
:105244002e019000be0190001e00be0085ed0700f7
:10525400f7fe07000200200063492400c9ed07009f
:10526400fcfe07000000fb000080fa0000000600be
:105274002c00fa00a0162a000f000900305f780005
:105284000e01b10070004700e1142a000d0009006e
:1052940031187800c001b1007000470045000700d4
:1052a400fdff37002c00fa00881f7800600f98007b
:1052b400710f98006c004700a1172a000f00090025
:1052c400315878000001b10035090700ec004700af
:1052d4006e099000fe099000829fbe00a0182a006b
:1052e400801f780001007800dcf20700e687570091
:1052f4006c01470011c0b3000040eb000708070031
:1053040066044700000220000e0040006e09900071
:10531400fe0990003eff0700000220000e0040003e
:105324001001be00028cbe00a0019000230498006e
:105334006600470010007800ebfe070000017800cb
:1053440011c0b30010c0b300f407070011c0b300cc
:1053540030c0b3003dfd0700600220000e00400095
:105364006e099000fe09900029ff070060022000ea
:105374000e0040001001be00028fbe00a00190008c
:10538400230798001e019000ae0190006e08900063
:10539400fe089000a6ff07000001fb0011c0b30047
:1053a40030c0b3004efd07004f0478000080fa00bf
:1053b400000006000200fa00000f78000800370021
:1053c4001e0078001000be00b6ff07001e00780023
:1053d400640f400000c02600c12d200020ec07000f
:1053e4001e0078001000be006011b800caed07006e
:1053f4000000e000f2ff3a000080fa00000006001e
:105404000600fa00200798000000eb00100798003f
:10541400260037001e0090008040780000cbb300c7
:1054240000c07000d208070000c1b300d008070014
:105434000040eb00ce080700e09d8000000f7800dc
:10544400070037002e00900010407800bc080700c9
:105454002e0090000000e800200798001e0fe800ce
:10546400f00720009e0f1000f6ff36000000eb004e
:10547400000f7800070037002e00900010407800dd
:10548400af0807002e0090000000e80020079800f5
:105494001e0fe800e09d80009e0f1000f6ff39000b
:1054a4001e0090000000e800100798001e00900005
:1054b400e30f5000d7ff3600e09d80000000e800b5
:1054c400e09d8800e19d80000008200000806000cd
:1054d400e09d88000080fa00000006003400f80017
:1054e400881f780008002000a80188004f04780075
:1054f4000000fa0084e0a9002023a8000080fa003c
:105504003400f90000400600809fbe00821f78002e
:105514003400f80000002000a00188000000fa0018
:1055240085a0a900b9d3bf000004e0000300320045
:1055340000188000009e880012003700f09d800053
:10554400021880008000400000802000008040009d
:1055540002087800f09d80000000e800f09d8800bb
:10556400f19d8000c05d2000808f500005003a004e
:1055740010c0b300b8f3b7000000eb00f09d880042
:1055840011e1a9000080fa003400f9004f0178000d
:105594004f00be00004006000000fa000111200088
:1055a40091407800f0ccb30000c060000044a0003b
:1055b40010e1b7001061a9001021a9000000eb0060
:1055c40030088800d00120006008880011e1a9009b
:1055d4000080fa00000006000000fa000080eb00e2
:1055e400601988000000eb00001688000000eb0042
:1055f400401688000000eb00801688000000eb00d5
:10560400101688000000eb00501688000000eb0024
:105614009016880007070700dfff070060fc0700fb
:1056240085a0a90095a0a80084e0a90094e0a800a2
:105634000080fa00000006008600fa00881f780047
:105644000040eb00207f98000000eb00401f980012
:105654006000b800201f9800311f98006000b80057
:10566400001f9800111f98000000eb00101798000d
:105674006000b800700f9800011798006000b8002f
:105684006011b800300f9800410f9800520f980035
:10569400630f98006000b8004027980051279800d5
:1056a4006000b80010079800210798000040eb0044
:1056b400004f7800c8ff070050392a00460707004a
:1056c40000802f004112200065eb070011e1a800c3
:1056d400019e800040382000808f5000fcff36007f
:1056e4000040eb00b9f3b7000000eb00009e880017
:1056f4002b080700e2392a0011c0b30030c0b30000
:105704000607070000202e004100200054eb07008c
:105714000040eb00207f980083013700b8d3bf001e
:105724000004e000fdff32000000eb005017980079
:105734000000200001f8230050079800610798003a
:105744000000200001f8230070079800010f980062
:105754000000eb0040179800180137004e1090002d
:105764006a0040003017980022003700be109000f5
:105774004e10900000805000800040000080200007
:1057840000804000100078006101b8003e109000d5
:10579400800040000080200000804000100078005d
:1057a40001002000000051008180590020879800ea
:1057b4002e8090000000e00003003d00ae809000c9
:1057c4008100ea00218798002e8090006101b900d1
:1057d4002e189000be1890000000410081804900fe
:1057e400201f9800311f98003e1090000000e80030
:1057f400301798004e109000e12e20008080400069
:105804003e109000808f5000d8ff3e004e10900054
:105814000000e000b60032002e189000be18900080
:105824000001eb008001eb003e0a9000ce0a9000dc
:105834005e0b9000ee0b9000040040008580480051
:105844000601490087814900300f9800410f9800f4
:10585400520f9800630f98004e10900000027800d9
:105864000500200006002000070020003e089000ec
:10587400ce0890005e099000ee09900022ed07002a
:10588400700f9800011798002e189000be18900011
:10589400e00f5000e08f5800060035002e189000ed
:1058a400be18900066eb07000087980011879800e7
:1058b400170037002e189000be1890006101600098
:1058c4006000b800030020000200700083807000b4
:1058d4002e199000be1990008301d1000281d300db
:1058e400020070008380700055eb07000087980069
:1058f400118798000e8190009e8190000e80900088
:105904009e8090007aeb070000879800118798002a
:105914007e0890008e109000e00f5000e08f580039
:10592400060035007e0890008e10900044eb0700be
:10593400603f9800713f9800170037007e08900080
:105944008e109000610160006000b8000300200028
:1059540002007000838070007e0990008e11900018
:105964008301d1000281d3000200700083807000a3
:1059740033eb0700603f9800713f98006e39900048
:10598400fe3990006e389000fe38900058eb070006
:10599400603f9800713f98006e399000fe39900086
:1059a4000e8090009e809000aeeb0700403f980070
:1059b400513f98002e189000be189000e00f500040
:1059c400e08f5800060035002e189000be18900095
:1059d4001beb0700203f9800313f98001700370069
:1059e4002e189000be189000610160006000b8009d
:1059f4000300200002007000838070002e199000c4
:105a0400be1990008301d1000281d300020070000e
:105a1400838070000aeb0700203f9800313f980014
:105a24002e399000be3990002e389000be38900078
:105a34002feb0700203f9800313f98007e0890002c
:105a44008e109000e00f5000e08f580006003500e3
:105a54007e0890008e109000f9ea0700003f98003d
:105a6400113f9800170037007e0890008e109000b8
:105a7400610160006000b8000300200002007000b3
:105a8400838070007e0990008e1190008301d10004
:105a94000281d3000200700083807000e8ea0700ee
